202401010830000800000000000000062699000000000000000626999900000000000000000000Sin Identificar               000000000864000000000000000000000000000000000000000000000000000000000000000000000000000000000000000000000000000000000000PES00010000001000000000000000000000000
202401010830000900000000000000294493000000000000002945229900000000000000000000Sin Identificar               000000008812500000000001479838000000000000000000000000000000000000000000000000000000000000000000000000000000000000000000PES00010000001000000000000000000000000
202401010810001100000000000000046993000000000000000469938000000000030711764743OPEN SRL                      000000000120000000000000000000000000000000000000000000000000000000000000000000000000000000000000000000000000000000000000PES00010000001000000000000000000000000
202401010830001100000000000000077793000000000000000778449900000000000000000000Sin Identificar               000000005264200000000000000000000000000000000000000000000000000000000000000000000000000000000000000000000000000000000000PES00010000002000000000000000000000000
202401010810001200000000000000056144000000000000000561448000000000030716248069GRUPO EON AMERICA             000000000477700000000000000000000000000000000000000000000000000000000000000000000000000000000000000000000000000000000000PES00010000001000000000000000000000000
202401010830001200000000000000100287000000000000001003099900000000000000000000Sin Identificar               000000004864800000000000000000000000000000000000000000000000000000000000000000000000000000000000000000000000000000000000PES00010000001000000000000000000000000
202401010810001300000000000000065860000000000000000658608000000000033715754989GRUPO ITS SRL                 000000000100001000000000000000000000000000000000000000000000000000000000000000000000000000000000000000000000000000000000PES00010000001000000000000000000000000
202401010810001300000000000000065862000000000000000658628000000000033715754989GRUPO ITS SRL                 000000000100001000000000000000000000000000000000000000000000000000000000000000000000000000000000000000000000000000000000PES00010000001000000000000000000000000
202401010810001300000000000000065865000000000000000658658000000000030714832847GRUPO 4 SRL                   000000000321201000000000000000000000000000000000000000000000000000000000000000000000000000000000000000000000000000000000PES00010000001000000000000000000000000
202401010810001300000000000000065866000000000000000658668000000000033715754989GRUPO ITS SRL                 000000000100001000000000000000000000000000000000000000000000000000000000000000000000000000000000000000000000000000000000PES00010000001000000000000000000000000
202401010810001300000000000000065868000000000000000658688000000000033715754989GRUPO ITS SRL                 000000000100001000000000000000000000000000000000000000000000000000000000000000000000000000000000000000000000000000000000PES00010000001000000000000000000000000
202401010810001300000000000000065871000000000000000658718000000000030710866011VASSALLOS SRL                 000000000200001000000000000000000000000000000000000000000000000000000000000000000000000000000000000000000000000000000000PES00010000001000000000000000000000000
202401010810001300000000000000065880000000000000000658808000000000030708277122MYCA SA                       000000001015000000000000000000000000000000000000000000000000000000000000000000000000000000000000000000000000000000000000PES00010000001000000000000000000000000
202401010810001300000000000000065882000000000000000658828000000000030530385597PUSIOL NELSON                 000000000317000000000000000000000000000000000000000000000000000000000000000000000000000000000000000000000000000000000000PES00010000001000000000000000000000000
202401010810001300000000000000065884000000000000000658848000000000020342462635FATALA ALEXIS                 000000000274999000000000000000000000000000000000000000000000000000000000000000000000000000000000000000000000000000000000PES00010000001000000000000000000000000
202401010810001300000000000000065885000000000000000658858000000000033715754989GRUPO ITS SRL                 000000000100001000000000000000000000000000000000000000000000000000000000000000000000000000000000000000000000000000000000PES00010000001000000000000000000000000
202401010810001300000000000000065886000000000000000658868000000000033715754989GRUPO ITS SRL                 000000000100001000000000000000000000000000000000000000000000000000000000000000000000000000000000000000000000000000000000PES00010000001000000000000000000000000
202401010810001300000000000000065887000000000000000658878000000000020240154723NICOLOFF MARCELO              000000000578900000000000000000000000000000000000000000000000000000000000000000000000000000000000000000000000000000000000PES00010000001000000000000000000000000
202401010810001300000000000000065888000000000000000658888000000000030692317021CAMPANIA DE ALIMENTO FARG     000000000413801000000000000000000000000000000000000000000000000000000000000000000000000000000000000000000000000000000000PES00010000001000000000000000000000000
202401010810001300000000000000065890000000000000000658908000000000030709866245GAMOT S.A                     000000000080000000000000000000000000000000000000000000000000000000000000000000000000000000000000000000000000000000000000PES00010000001000000000000000000000000
202401010830001300000000000000136701000000000000001367869900000000000000000000Sin Identificar               000000015604483000000000000000000000000000000000000000000000000000000000000000000000000000000000000000000000000000000000PES00010000001000000000000000000000000
202401010810001400000000000000000649000000000000000006498000000000020248559331TRUCCO EUGENIO                000000001203000000000000000000000000000000000000000000000000000000000000000000000000000000000000000000000000000000000000PES00010000001000000000000000000000000
202401010830001400000000000000086281000000000000000865459900000000000000000000Sin Identificar               000000077910500000000008363078000000000000000000000000000000000000000000000000000000000000000000000000000000000000000000PES00010000001000000000000000000000000
202401010830001500000000000000012869000000000000000128869900000000000000000000Sin Identificar               000000009845000000000000000000000000000000000000000000000000000000000000000000000000000000000000000000000000000000000000PES00010000001000000000000000000000000
202401020810000800000000000000037044000000000000000370448000000000030717096815384 FRANQUICIAS Y PYMES S     000000011914400000000000000000000000000000000000000000000000000000000000000000000000000000000000000000000000000000000000PES00010000001000000000000000000000000
202401020810000800000000000000037051000000000000000370518000000000033708828039BIOCHEMIQ SA                  000000020647600000000000000000000000000000000000000000000000000000000000000000000000000000000000000000000000000000000000PES00010000001000000000000000000000000
202401020810000800000000000000037068000000000000000370688000000000030690195263BIOTER SA                     000000011740100000000000000000000000000000000000000000000000000000000000000000000000000000000000000000000000000000000000PES00010000001000000000000000000000000
202401020830000800000000000000062705000000000000000627389900000000000000000000Sin Identificar               000000101648400000000000000000000000000000000000000000000000000000000000000000000000000000000000000000000000000000000000PES00010000002000000000000000000000000
202401020830000900000000000000294523000000000000002945509900000000000000000000Sin Identificar               000000005396999000000000315481000000000000000000000000000000000000000000000000000000000000000000000000000000000000000000PES00010000001000000000000000000000000
202401020810001100000000000000047014000000000000000470148000000000030712036199HORMIGONES TERRA              000000000578700000000000000000000000000000000000000000000000000000000000000000000000000000000000000000000000000000000000PES00010000001000000000000000000000000
202401020830001100000000000000077868000000000000000779259900000000000000000000Sin Identificar               000000004068700000000000000000000000000000000000000000000000000000000000000000000000000000000000000000000000000000000000PES00010000001000000000000000000000000
202401020810001200000000000000056148000000000000000561488000000000033715754989GRUPO ITS SRL                 000000000100001000000000000000000000000000000000000000000000000000000000000000000000000000000000000000000000000000000000PES00010000001000000000000000000000000
202401020830001200000000000000100386000000000000001004399900000000000000000000Sin Identificar               000000002286658000000000000000000000000000000000000000000000000000000000000000000000000000000000000000000000000000000000PES00010000001000000000000000000000000
202401020810001300000000000000065892000000000000000658928000000000020331012328FERNANDO DANIEL GONZALEZ      000000000323201000000000000000000000000000000000000000000000000000000000000000000000000000000000000000000000000000000000PES00010000001000000000000000000000000
202401020810001300000000000000065895000000000000000658958000000000033715754989GRUPO ITS SRL                 000000000100001000000000000000000000000000000000000000000000000000000000000000000000000000000000000000000000000000000000PES00010000001000000000000000000000000
202401020810001300000000000000065898000000000000000658988000000000030710853432CLIMATICA S.R.L.              000000000250000000000000000000000000000000000000000000000000000000000000000000000000000000000000000000000000000000000000PES00010000001000000000000000000000000
202401020810001300000000000000065900000000000000000659008000000000030633048629ASOC CIVIL SERVICIO A LA      000000000289300000000000000000000000000000000000000000000000000000000000000000000000000000000000000000000000000000000000PES00010000001000000000000000000000000
202401020810001300000000000000065906000000000000000659068000000000030658446300ALBER-GUS S.A                 000000000473999000000000000000000000000000000000000000000000000000000000000000000000000000000000000000000000000000000000PES00010000001000000000000000000000000
202401020810001300000000000000065911000000000000000659118000000000020126136677AIRUT JORGE                   000000000330799000000000000000000000000000000000000000000000000000000000000000000000000000000000000000000000000000000000PES00010000001000000000000000000000000
202401020810001300000000000000065918000000000000000659188000000000030717523373INNOVA SOLUCIONES SAS         000000000366000000000000000000000000000000000000000000000000000000000000000000000000000000000000000000000000000000000000PES00010000001000000000000000000000000
202401020810001300000000000000065919000000000000000659198000000000030710103220TERRALON SRL                  000000000958301000000000000000000000000000000000000000000000000000000000000000000000000000000000000000000000000000000000PES00010000001000000000000000000000000
202401020810001300000000000000065925000000000000000659258000000000033715754989GRUPO ITS SRL                 000000000100001000000000000000000000000000000000000000000000000000000000000000000000000000000000000000000000000000000000PES00010000001000000000000000000000000
202401020810001300000000000000065939000000000000000659398000000000030647877296PRAXIS SRL                    000000000100001000000000000000000000000000000000000000000000000000000000000000000000000000000000000000000000000000000000PES00010000001000000000000000000000000
202401020810001300000000000000065947000000000000000659478000000000033715754989GRUPO ITS SRL                 000000000100001000000000000000000000000000000000000000000000000000000000000000000000000000000000000000000000000000000000PES00010000001000000000000000000000000
202401020810001300000000000000065948000000000000000659488000000000020342462635FATALA ALEXIS                 000000000265999000000000000000000000000000000000000000000000000000000000000000000000000000000000000000000000000000000000PES00010000001000000000000000000000000
202401020810001300000000000000065953000000000000000659538000000000023164101819KRUPIK                        000000000292999000000000000000000000000000000000000000000000000000000000000000000000000000000000000000000000000000000000PES00010000001000000000000000000000000
202401020810001300000000000000065957000000000000000659578000000000020244728090LEONARDO RAFAEL LUDUEÑA       000000000381999000000000000000000000000000000000000000000000000000000000000000000000000000000000000000000000000000000000PES00010000001000000000000000000000000
202401020810001300000000000000065969000000000000000659698000000000033715754989GRUPO ITS SRL                 000000000100001000000000000000000000000000000000000000000000000000000000000000000000000000000000000000000000000000000000PES00010000001000000000000000000000000
202401020830001300000000000000136787000000000000001369279900000000000000000000Sin Identificar               000000022030800000000000000000000000000000000000000000000000000000000000000000000000000000000000000000000000000000000000PES00010000001000000000000000000000000
202401020810001400000000000000000650000000000000000006508000000000030709785725EL LEGADO SEGURIDAD PRIVA     000000000250000000000000000000000000000000000000000000000000000000000000000000000000000000000000000000000000000000000000PES00010000001000000000000000000000000
202401020810001400000000000000000651000000000000000006518000000000030707473866ENVAIRO  S.A                  000000000397000000000000004486000000000000000000000000000000000000000000000000000000000000000000000000000000000000000000PES00010000001000000000000000000000000
202401020810001400000000000000000652000000000000000006528000000000030707473866ENVAIRO  S.A                  000000000575500000000000000000000000000000000000000000000000000000000000000000000000000000000000000000000000000000000000PES00010000001000000000000000000000000
202401020810001400000000000000000653000000000000000006538000000000033709294399SOLUCIONES ANALITICAS S.A     000000000787500000000000000000000000000000000000000000000000000000000000000000000000000000000000000000000000000000000000PES00010000001000000000000000000000000
202401020830001400000000000000086546000000000000000868379900000000000000000000Sin Identificar               000000079080651000000009512540000000000000000000000000000000000000000000000000000000000000000000000000000000000000000000PES00010000001000000000000000000000000
202401020830001500000000000000012887000000000000000129259900000000000000000000Sin Identificar               000000021236000000000000002636000000000000000000000000000000000000000000000000000000000000000000000000000000000000000000PES00010000001000000000000000000000000
202401030830000800000000000000062762000000000000000628109900000000000000000000Sin Identificar               000000089367200000000000000000000000000000000000000000000000000000000000000000000000000000000000000000000000000000000000PES00010000001000000000000000000000000
202401030830000900000000000000294551000000000000002945839900000000000000000000Sin Identificar               000000007405500000000000360585000000000000000000000000000000000000000000000000000000000000000000000000000000000000000000PES00010000001000000000000000000000000
202401030810001100000000000000047111000000000000000471118000000000027169041046GHISSONI CLAUDIA              000000000270001000000000000000000000000000000000000000000000000000000000000000000000000000000000000000000000000000000000PES00010000001000000000000000000000000
202401030830001100000000000000078011000000000000000780609900000000000000000000Sin Identificar               000000001324700000000000000000000000000000000000000000000000000000000000000000000000000000000000000000000000000000000000PES00010000001000000000000000000000000
202401030810001200000000000000056245000000000000000562458000000000033632963659QUIPAR S.R.L.                 000000000371400000000000000000000000000000000000000000000000000000000000000000000000000000000000000000000000000000000000PES00010000001000000000000000000000000
202401030810001200000000000000056303000000000000000563038000000000030707961542ESTABLECIMIENTOS ARGENTIN     000000000248801000000000000000000000000000000000000000000000000000000000000000000000000000000000000000000000000000000000PES00010000001000000000000000000000000
202401030830001200000000000000100523000000000000001005849900000000000000000000Sin Identificar               000000000727701000000000000000000000000000000000000000000000000000000000000000000000000000000000000000000000000000000000PES00010000001000000000000000000000000
202401030810001300000000000000065981000000000000000659818000000000030658446300ALBER-GUS S.A                 000000000280501000000000000000000000000000000000000000000000000000000000000000000000000000000000000000000000000000000000PES00010000001000000000000000000000000
202401030810001300000000000000065984000000000000000659848000000000033715754989GRUPO ITS SRL                 000000000100001000000000000000000000000000000000000000000000000000000000000000000000000000000000000000000000000000000000PES00010000001000000000000000000000000
202401030810001300000000000000065992000000000000000659928000000000033715754989GRUPO ITS SRL                 000000000100001000000000000000000000000000000000000000000000000000000000000000000000000000000000000000000000000000000000PES00010000001000000000000000000000000
202401030810001300000000000000065993000000000000000659938000000000030717353907LESSIO HERMANOS               000000000302600000000000000000000000000000000000000000000000000000000000000000000000000000000000000000000000000000000000PES00010000001000000000000000000000000
20240103081000130000000000000006599400000000000000065994800000000003071474336425 WATSS SA                   000000000225799000000000000000000000000000000000000000000000000000000000000000000000000000000000000000000000000000000000PES00010000001000000000000000000000000
202401030810001300000000000000065996000000000000000659968000000000020342462635FATALA ALEXIS                 000000000282400000000000000000000000000000000000000000000000000000000000000000000000000000000000000000000000000000000000PES00010000001000000000000000000000000
202401030810001300000000000000065998000000000000000659988000000000030714832847GRUPO 4 SRL                   000000000432100000000000000000000000000000000000000000000000000000000000000000000000000000000000000000000000000000000000PES00010000001000000000000000000000000
202401030810001300000000000000066000000000000000000660008000000000030709935875METAL LINE SRL                000000000350201000000000000000000000000000000000000000000000000000000000000000000000000000000000000000000000000000000000PES00010000001000000000000000000000000
202401030810001300000000000000066001000000000000000660018000000000033583576229NUEVA DECADA                  000000000578700000000000000000000000000000000000000000000000000000000000000000000000000000000000000000000000000000000000PES00010000001000000000000000000000000
202401030810001300000000000000066002000000000000000660028000000000030714997110TARPUY AGRO SRL               000000000248000000000000000000000000000000000000000000000000000000000000000000000000000000000000000000000000000000000000PES00010000001000000000000000000000000
202401030810001300000000000000066003000000000000000660038000000000030657559349S.O.S.  S.A.                  000000000395499000000000000000000000000000000000000000000000000000000000000000000000000000000000000000000000000000000000PES00010000001000000000000000000000000
202401030810001300000000000000066017000000000000000660178000000000030709351725L.C. MATRICERIA SRL           000000000278001000000000000000000000000000000000000000000000000000000000000000000000000000000000000000000000000000000000PES00010000001000000000000000000000000
202401030810001300000000000000066021000000000000000660218000000000030717141624STRADE SA                     000000000393699000000000000000000000000000000000000000000000000000000000000000000000000000000000000000000000000000000000PES00010000001000000000000000000000000
202401030810001300000000000000066029000000000000000660298000000000033715754989GRUPO ITS SRL                 000000000156999000000000000000000000000000000000000000000000000000000000000000000000000000000000000000000000000000000000PES00010000001000000000000000000000000
202401030810001300000000000000066037000000000000000660378000000000030716925656METALES MAIPU SAS             000000000130000000000000000000000000000000000000000000000000000000000000000000000000000000000000000000000000000000000000PES00010000001000000000000000000000000
202401030810001300000000000000066039000000000000000660398000000000030710089996LA LEJANA SA                  000000000412201000000000000000000000000000000000000000000000000000000000000000000000000000000000000000000000000000000000PES00010000001000000000000000000000000
202401030810001300000000000000066040000000000000000660408000000000027253361412VILELA AGUIRRE GRICELDA       000000000407899000000000000000000000000000000000000000000000000000000000000000000000000000000000000000000000000000000000PES00010000001000000000000000000000000
202401030810001300000000000000066043000000000000000660438000000000033715754989GRUPO ITS SRL                 000000000100001000000000000000000000000000000000000000000000000000000000000000000000000000000000000000000000000000000000PES00010000001000000000000000000000000
202401030810001300000000000000066046000000000000000660468000000000033715754989GRUPO ITS SRL                 000000000100001000000000000000000000000000000000000000000000000000000000000000000000000000000000000000000000000000000000PES00010000001000000000000000000000000
202401030810001300000000000000066051000000000000000660518000000000030657559349S.O.S.  S.A.                  000000000435299000000000000000000000000000000000000000000000000000000000000000000000000000000000000000000000000000000000PES00010000001000000000000000000000000
202401030820001300000000000000003194000000000000000031948000000000020252035568OTTELLI AGUSTIN               000000000260001000000000000000000000000000000000000000000000000000000000000000000000000000000000000000000000000000000000PES00010000001000000000000000000000000
202401030820001300000000000000003195000000000000000031958000000000020250384352QUIÑONES PABLO                000000000150000000000000000000000000000000000000000000000000000000000000000000000000000000000000000000000000000000000000PES00010000001000000000000000000000000
202401030830001300000000000000136937000000000000001371459900000000000000000000Sin Identificar               000000025252448000000000000000000000000000000000000000000000000000000000000000000000000000000000000000000000000000000000PES00010000001000000000000000000000000
202401030810001400000000000000000654000000000000000006548000000000030709785725EL LEGADO SEGURIDAD PRIVA     000000000300500000000000000000000000000000000000000000000000000000000000000000000000000000000000000000000000000000000000PES00010000001000000000000000000000000
202401030810001400000000000000000655000000000000000006558000000000020227735334PAEZ GONZALO JOSE             000000001020000000000000000000000000000000000000000000000000000000000000000000000000000000000000000000000000000000000000PES00010000001000000000000000000000000
202401030810001400000000000000000656000000000000000006568000000000030710064675PINTURAS PACLIN               000000000345000000000000000000000000000000000000000000000000000000000000000000000000000000000000000000000000000000000000PES00010000001000000000000000000000000
202401030810001400000000000000000657000000000000000006578000000000033709294399SOLUCIONES ANALITICAS S.A     000000001180000000000000000000000000000000000000000000000000000000000000000000000000000000000000000000000000000000000000PES00010000001000000000000000000000000
202401030810001400000000000000000658000000000000000006588000000000030708244755AGROPECUARIA SAN ANTONIO      000000000143500000000000000000000000000000000000000000000000000000000000000000000000000000000000000000000000000000000000PES00010000001000000000000000000000000
202401030810001400000000000000000659000000000000000006598000000000030716024071EL JARDINERO SAS              000000000220000000000000000000000000000000000000000000000000000000000000000000000000000000000000000000000000000000000000PES00010000001000000000000000000000000
202401030830001400000000000000086838000000000000000871429900000000000000000000Sin Identificar               000000079445100000000010465936000000000000000000000000000000000000000000000000000000000000000000000000000000000000000000PES00010000001000000000000000000000000
202401030810001500000000000000000281000000000000000002818000000000033715754989GRUPO ITS SRL                 000000000300000000000000000000000000000000000000000000000000000000000000000000000000000000000000000000000000000000000000PES00010000001000000000000000000000000
202401030830001500000000000000012926000000000000000129699900000000000000000000Sin Identificar               000000025414000000000000006971000000000000000000000000000000000000000000000000000000000000000000000000000000000000000000PES00010000001000000000000000000000000
202401030830001700000000000000004940000000000000000049439900000000000000000000Sin Identificar               000000002028000000000000003248000000000000000000000000000000000000000000000000000000000000000000000000000000000000000000PES00010000001000000000000000000000000
202401040810000800000000000000037146000000000000000371468000000000020303310313GOLDENHERSCH MAURO            000000010329700000000000000000000000000000000000000000000000000000000000000000000000000000000000000000000000000000000000PES00010000001000000000000000000000000
202401040810000800000000000000037148000000000000000371488000000000027207868235SAURIT VERONICA               000000010516100000000000000000000000000000000000000000000000000000000000000000000000000000000000000000000000000000000000PES00010000001000000000000000000000000
202401040830000800000000000000062826000000000000000628569900000000000000000000Sin Identificar               000000100908100000000000000000000000000000000000000000000000000000000000000000000000000000000000000000000000000000000000PES00010000001000000000000000000000000
202401040080000900000000000000000001000000000000000000018000000000020222222223CONSUMIDOR FINAL              000000001444000000000000000921000000000000000000000000000000000000000000000000000000000000000000000000000000000000000000PES00010000001000000000000000000000000
202401040830000900000000000000294584000000000000002946039900000000000000000000Sin Identificar               000000007232499000000001164641000000000000000000000000000000000000000000000000000000000000000000000000000000000000000000PES00010000001000000000000000000000000
202401040830001100000000000000078075000000000000000781349900000000000000000000Sin Identificar               000000009712600000000000000000000000000000000000000000000000000000000000000000000000000000000000000000000000000000000000PES00010000001000000000000000000000000
202401040830001200000000000000100665000000000000001007409900000000000000000000Sin Identificar               000000001618500000000000000000000000000000000000000000000000000000000000000000000000000000000000000000000000000000000000PES00010000001000000000000000000000000
202401040810001300000000000000066061000000000000000660618000000000033718036629GINEF SAS                     000000000403101000000000000000000000000000000000000000000000000000000000000000000000000000000000000000000000000000000000PES00010000001000000000000000000000000
202401040810001300000000000000066062000000000000000660628000000000030658446300ALBER-GUS S.A                 000000000330900000000000000000000000000000000000000000000000000000000000000000000000000000000000000000000000000000000000PES00010000001000000000000000000000000
202401040810001300000000000000066063000000000000000660638000000000030714024104REGGIANI CRISTIAN Y PABLO     000000000204700000000000000000000000000000000000000000000000000000000000000000000000000000000000000000000000000000000000PES00010000001000000000000000000000000
202401040810001300000000000000066064000000000000000660648000000000020342462635FATALA ALEXIS                 000000000200001000000000000000000000000000000000000000000000000000000000000000000000000000000000000000000000000000000000PES00010000001000000000000000000000000
202401040810001300000000000000066065000000000000000660658000000000030716471914BASSIAR CONSTRUCCIONES S.     000000000283999000000000000000000000000000000000000000000000000000000000000000000000000000000000000000000000000000000000PES00010000001000000000000000000000000
202401040810001300000000000000066070000000000000000660708000000000033707354149CONSTUCCIONES DEL LAGO        000000000899999000000000000000000000000000000000000000000000000000000000000000000000000000000000000000000000000000000000PES00010000001000000000000000000000000
202401040810001300000000000000066073000000000000000660738000000000030710853432CLIMATICA S.R.L.              000000000290000000000000000000000000000000000000000000000000000000000000000000000000000000000000000000000000000000000000PES00010000001000000000000000000000000
202401040810001300000000000000066075000000000000000660758000000000033715754989GRUPO ITS SRL                 000000000100001000000000000000000000000000000000000000000000000000000000000000000000000000000000000000000000000000000000PES00010000001000000000000000000000000
202401040810001300000000000000066076000000000000000660768000000000033715754989GRUPO ITS SRL                 000000000149999000000000000000000000000000000000000000000000000000000000000000000000000000000000000000000000000000000000PES00010000001000000000000000000000000
202401040810001300000000000000066080000000000000000660808000000000030669110851SALVAC S R L                  000000000193199000000000000000000000000000000000000000000000000000000000000000000000000000000000000000000000000000000000PES00010000001000000000000000000000000
202401040810001300000000000000066088000000000000000660888000000000030717075761ZORZALES SAS                  000000000736299000000000000000000000000000000000000000000000000000000000000000000000000000000000000000000000000000000000PES00010000001000000000000000000000000
202401040810001300000000000000066089000000000000000660898000000000030590830107CONSULTORES DE EMPRESAS S     000000000380400000000000000000000000000000000000000000000000000000000000000000000000000000000000000000000000000000000000PES00010000001000000000000000000000000
202401040810001300000000000000066093000000000000000660938000000000030717353907LESSIO HERMANOS               000000000201798000000000000000000000000000000000000000000000000000000000000000000000000000000000000000000000000000000000PES00010000001000000000000000000000000
202401040810001300000000000000066096000000000000000660968000000000030707761896COBERTURA DE SALUD S.A.       000000000555001000000000000000000000000000000000000000000000000000000000000000000000000000000000000000000000000000000000PES00010000001000000000000000000000000
202401040810001300000000000000066100000000000000000661008000000000030714462373SERVICIOS AMBIENTALES         000000000457701000000000000000000000000000000000000000000000000000000000000000000000000000000000000000000000000000000000PES00010000001000000000000000000000000
202401040810001300000000000000066101000000000000000661018000000000030658446300ALBER-GUS S.A                 000000000380000000000000000000000000000000000000000000000000000000000000000000000000000000000000000000000000000000000000PES00010000001000000000000000000000000
202401040810001300000000000000066105000000000000000661058000000000030709785725EL LEGADO SEGURIDAD PRIVA     000000000318398000000000000000000000000000000000000000000000000000000000000000000000000000000000000000000000000000000000PES00010000001000000000000000000000000
202401040810001300000000000000066107000000000000000661078000000000030716024071EL JARDINERO SAS              000000000256202000000000000000000000000000000000000000000000000000000000000000000000000000000000000000000000000000000000PES00010000001000000000000000000000000
202401040810001300000000000000066114000000000000000661148000000000030716925656METALES MAIPU SAS             000000000502002000000000000000000000000000000000000000000000000000000000000000000000000000000000000000000000000000000000PES00010000001000000000000000000000000
202401040810001300000000000000066115000000000000000661158000000000033715754989GRUPO ITS SRL                 000000000150000000000000000000000000000000000000000000000000000000000000000000000000000000000000000000000000000000000000PES00010000001000000000000000000000000
202401040810001300000000000000066117000000000000000661178000000000033715754989GRUPO ITS SRL                 000000000150000000000000000000000000000000000000000000000000000000000000000000000000000000000000000000000000000000000000PES00010000001000000000000000000000000
202401040810001300000000000000066123000000000000000661238000000000030707068740SWEET SA                      000000000225000000000000000000000000000000000000000000000000000000000000000000000000000000000000000000000000000000000000PES00010000001000000000000000000000000
202401040830001300000000000000137149000000000000001372979900000000000000000000Sin Identificar               000000026205285000000000000000000000000000000000000000000000000000000000000000000000000000000000000000000000000000000000PES00010000001000000000000000000000000
202401040810001400000000000000000660000000000000000006608000000000030709785725EL LEGADO SEGURIDAD PRIVA     000000000250000000000000000000000000000000000000000000000000000000000000000000000000000000000000000000000000000000000000PES00010000001000000000000000000000000
202401040810001400000000000000000661000000000000000006618000000000023178450379PAULO A. GRECCO               000000000195000000000000000000000000000000000000000000000000000000000000000000000000000000000000000000000000000000000000PES00010000001000000000000000000000000
202401040810001400000000000000000662000000000000000006628000000000030710132999HIPERMAQ S.R.L.               000000000771000000000000026560000000000000000000000000000000000000000000000000000000000000000000000000000000000000000000PES00010000001000000000000000000000000
202401040810001400000000000000000663000000000000000006638000000000030504484455ESTRUCTURAS SACICIYF          000000000565000000000000000000000000000000000000000000000000000000000000000000000000000000000000000000000000000000000000PES00010000001000000000000000000000000
202401040810001400000000000000000664000000000000000006648000000000030658446300ALBER-GUS S.A                 000000000334000000000000000000000000000000000000000000000000000000000000000000000000000000000000000000000000000000000000PES00010000001000000000000000000000000
202401040830001400000000000000087143000000000000000874669900000000000000000000Sin Identificar               000000085658302000000015541055000000000000000000000000000000000000000000000000000000000000000000000000000000000000000000PES00010000001000000000000000000000000
202401040810001500000000000000000282000000000000000002828000000000033715754989GRUPO ITS SRL                 000000001188000000000000005970000000000000000000000000000000000000000000000000000000000000000000000000000000000000000000PES00010000001000000000000000000000000
202401040810001500000000000000000283000000000000000002838000000000023178450379PAULO A. GRECCO               000000000600000000000000000000000000000000000000000000000000000000000000000000000000000000000000000000000000000000000000PES00010000001000000000000000000000000
202401040830001500000000000000012970000000000000000130299900000000000000000000Sin Identificar               000000038511000000000000019160000000000000000000000000000000000000000000000000000000000000000000000000000000000000000000PES00010000001000000000000000000000000
202401050010000700000000000000000103000000000000000001038000000000033629749859RED LINK S.A.                 000000087161140000000000000000000000000000000000000000000000000000000000000000000000000000000000000000000000000000000000PES00010000001000000000000000000000000
202401050810000800000000000000037165000000000000000371658000000000020243015473GERMAN CORDERA                000000009479700000000000000000000000000000000000000000000000000000000000000000000000000000000000000000000000000000000000PES00010000001000000000000000000000000
202401050830000800000000000000062862000000000000000629039900000000000000000000Sin Identificar               000000093301200000000000000000000000000000000000000000000000000000000000000000000000000000000000000000000000000000000000PES00010000001000000000000000000000000
202401050080000900000000000000000001000000000000000000018000000000020222222223CONSUMIDOR FINAL              000000001188000000000000005970000000000000000000000000000000000000000000000000000000000000000000000000000000000000000000PES00010000001000000000000000000000000
202401050830000900000000000000294604000000000000002946429900000000000000000000Sin Identificar               000000015187000000000005732643000000000000000000000000000000000000000000000000000000000000000000000000000000000000000000PES00010000001000000000000000000000000
202401050830001100000000000000078139000000000000000782309900000000000000000000Sin Identificar               000000009500700000000000000000000000000000000000000000000000000000000000000000000000000000000000000000000000000000000000PES00010000001000000000000000000000000
202401050810001200000000000000056372000000000000000563728000000000033698465579EVN SA                        000000000204700000000000000000000000000000000000000000000000000000000000000000000000000000000000000000000000000000000000PES00010000001000000000000000000000000
202401050810001200000000000000056405000000000000000564058000000000033715754989GRUPO ITS SRL                 000000000100001000000000000000000000000000000000000000000000000000000000000000000000000000000000000000000000000000000000PES00010000001000000000000000000000000
202401050810001200000000000000056413000000000000000564138000000000030708244755AGROPECUARIA SAN ANTONIO      000000000532701000000000000000000000000000000000000000000000000000000000000000000000000000000000000000000000000000000000PES00010000001000000000000000000000000
202401050810001200000000000000056414000000000000000564148000000000030708244755AGROPECUARIA SAN ANTONIO      000000000592699000000000000000000000000000000000000000000000000000000000000000000000000000000000000000000000000000000000PES00010000001000000000000000000000000
202401050810001200000000000000056425000000000000000564258000000000033715754989GRUPO ITS SRL                 000000000150000000000000000000000000000000000000000000000000000000000000000000000000000000000000000000000000000000000000PES00010000001000000000000000000000000
202401050820001200000000000000003124000000000000000031248000000000033628302729FUERZA AEREA ARG              000000001157400000000000000000000000000000000000000000000000000000000000000000000000000000000000000000000000000000000000PES00010000001000000000000000000000000
202401050830001200000000000000100757000000000000001008469900000000000000000000Sin Identificar               000000005333300000000000000000000000000000000000000000000000000000000000000000000000000000000000000000000000000000000000PES00010000001000000000000000000000000
202401050810001300000000000000066130000000000000000661308000000000033715754989GRUPO ITS SRL                 000000000150000000000000000000000000000000000000000000000000000000000000000000000000000000000000000000000000000000000000PES00010000001000000000000000000000000
202401050810001300000000000000066134000000000000000661348000000000020223759700ROJAS MARIO ALEJANDRO         000000000833200000000000000000000000000000000000000000000000000000000000000000000000000000000000000000000000000000000000PES00010000001000000000000000000000000
202401050810001300000000000000066135000000000000000661358000000000033715754989GRUPO ITS SRL                 000000000520001000000000000000000000000000000000000000000000000000000000000000000000000000000000000000000000000000000000PES00010000001000000000000000000000000
202401050810001300000000000000066137000000000000000661378000000000033715754989GRUPO ITS SRL                 000000000150000000000000000000000000000000000000000000000000000000000000000000000000000000000000000000000000000000000000PES00010000001000000000000000000000000
202401050810001300000000000000066140000000000000000661408000000000030717380602MM SERVICIOS INTEGRALES S     000000000204700000000000000000000000000000000000000000000000000000000000000000000000000000000000000000000000000000000000PES00010000001000000000000000000000000
202401050810001300000000000000066147000000000000000661478000000000020113785277RUBEN DARIO ORSO              000000000476099000000000000000000000000000000000000000000000000000000000000000000000000000000000000000000000000000000000PES00010000001000000000000000000000000
202401050810001300000000000000066148000000000000000661488000000000020113785277RUBEN DARIO ORSO              000000000576100000000000000000000000000000000000000000000000000000000000000000000000000000000000000000000000000000000000PES00010000001000000000000000000000000
202401050810001300000000000000066151000000000000000661518000000000030707596321AIR PHONE S.A.                000000000445300000000000000000000000000000000000000000000000000000000000000000000000000000000000000000000000000000000000PES00010000001000000000000000000000000
202401050810001300000000000000066152000000000000000661528000000000020331012328FERNANDO DANIEL GONZALEZ      000000000428299000000000000000000000000000000000000000000000000000000000000000000000000000000000000000000000000000000000PES00010000001000000000000000000000000
202401050810001300000000000000066153000000000000000661538000000000027303300363CASA AGOSTINA VALERIA         000000000530000000000000000000000000000000000000000000000000000000000000000000000000000000000000000000000000000000000000PES00010000001000000000000000000000000
202401050810001300000000000000066156000000000000000661568000000000020076936030OSHIRO RAUL                   000000000244000000000000000000000000000000000000000000000000000000000000000000000000000000000000000000000000000000000000PES00010000001000000000000000000000000
202401050810001300000000000000066165000000000000000661658000000000033714336849TRADE FARMA ARG SA            000000000585999000000000000000000000000000000000000000000000000000000000000000000000000000000000000000000000000000000000PES00010000001000000000000000000000000
202401050810001300000000000000066167000000000000000661678000000000030710787863SOLVENS TRADE                 000000000253301000000000000000000000000000000000000000000000000000000000000000000000000000000000000000000000000000000000PES00010000001000000000000000000000000
202401050810001300000000000000066169000000000000000661698000000000027349908447CINTIA ANABELA FARIAS         000000000283198000000000000000000000000000000000000000000000000000000000000000000000000000000000000000000000000000000000PES00010000001000000000000000000000000
202401050810001300000000000000066172000000000000000661728000000000020355268838CASERES PINTO                 000000000641301000000000000000000000000000000000000000000000000000000000000000000000000000000000000000000000000000000000PES00010000001000000000000000000000000
202401050810001300000000000000066176000000000000000661768000000000020165010338BLANCO RAUL HORACIO           000000000566600000000000000000000000000000000000000000000000000000000000000000000000000000000000000000000000000000000000PES00010000001000000000000000000000000
202401050810001300000000000000066186000000000000000661868000000000030709785725EL LEGADO SEGURIDAD PRIVA     000000000421300000000000000000000000000000000000000000000000000000000000000000000000000000000000000000000000000000000000PES00010000001000000000000000000000000
202401050810001300000000000000066189000000000000000661898000000000030657559349S.O.S.  S.A.                  000000000318502000000000000000000000000000000000000000000000000000000000000000000000000000000000000000000000000000000000PES00010000001000000000000000000000000
202401050810001300000000000000066191000000000000000661918000000000030716808110BPAY SAS                      000000000373999000000000000000000000000000000000000000000000000000000000000000000000000000000000000000000000000000000000PES00010000001000000000000000000000000
202401050810001300000000000000066197000000000000000661978000000000033715754989GRUPO ITS SRL                 000000000150000000000000000000000000000000000000000000000000000000000000000000000000000000000000000000000000000000000000PES00010000001000000000000000000000000
202401050830001300000000000000137302000000000000001374529900000000000000000000Sin Identificar               000000032523184000000000000000000000000000000000000000000000000000000000000000000000000000000000000000000000000000000000PES00010000001000000000000000000000000
202401050810001400000000000000000665000000000000000006658000000000030709785725EL LEGADO SEGURIDAD PRIVA     000000000250000000000000000000000000000000000000000000000000000000000000000000000000000000000000000000000000000000000000PES00010000001000000000000000000000000
202401050810001400000000000000000666000000000000000006668000000000020227735334PAEZ GONZALO JOSE             000000000930000000000000000000000000000000000000000000000000000000000000000000000000000000000000000000000000000000000000PES00010000001000000000000000000000000
202401050810001400000000000000000667000000000000000006678000000000030708256788GRUPO EURO                    000000000802000000000000008956000000000000000000000000000000000000000000000000000000000000000000000000000000000000000000PES00010000001000000000000000000000000
202401050810001400000000000000000668000000000000000006688000000000020264129223TUFIH SAHADE                  000000000314000000000000002239000000000000000000000000000000000000000000000000000000000000000000000000000000000000000000PES00010000001000000000000000000000000
202401050830001400000000000000087467000000000000000878679900000000000000000000Sin Identificar               000000109777249000000019181087000000000000000000000000000000000000000000000000000000000000000000000000000000000000000000PES00010000001000000000000000000000000
202401050810001500000000000000000284000000000000000002848000000000030708843845PARRA AUTOMOTORES             000000001610000000000000000000000000000000000000000000000000000000000000000000000000000000000000000000000000000000000000PES00010000001000000000000000000000000
202401050810001500000000000000000285000000000000000002858000000000030714790788NAXOS KUT S.A.                000000001380000000000000000000000000000000000000000000000000000000000000000000000000000000000000000000000000000000000000PES00010000001000000000000000000000000
202401050810001500000000000000000286000000000000000002868000000000030714790788NAXOS KUT S.A.                000000001024000000000000002986000000000000000000000000000000000000000000000000000000000000000000000000000000000000000000PES00010000001000000000000000000000000
202401050830001500000000000000013030000000000000000130729900000000000000000000Sin Identificar               000000023540000000000000006717000000000000000000000000000000000000000000000000000000000000000000000000000000000000000000PES00010000001000000000000000000000000
202401060810000800000000000000037193000000000000000371938000000000030717263878EXIS                          000000011606700000000000000000000000000000000000000000000000000000000000000000000000000000000000000000000000000000000000PES00010000001000000000000000000000000
202401060810000800000000000000037202000000000000000372028000000000020117729150CENTURION DIEGO ALEJANDRO     000000000090000000000000000000000000000000000000000000000000000000000000000000000000000000000000000000000000000000000000PES00010000001000000000000000000000000
202401060830000800000000000000062911000000000000000629309900000000000000000000Sin Identificar               000000046332348000000000000000000000000000000000000000000000000000000000000000000000000000000000000000000000000000000000PES00010000001000000000000000000000000
202401060830000900000000000000294643000000000000002946659900000000000000000000Sin Identificar               000000007208000000000002172650000000000000000000000000000000000000000000000000000000000000000000000000000000000000000000PES00010000001000000000000000000000000
202401060810001100000000000000047266000000000000000472668000000000030716593076RESPUESTOS RUTA 20            000000000120000000000000000000000000000000000000000000000000000000000000000000000000000000000000000000000000000000000000PES00010000001000000000000000000000000
202401060830001100000000000000078246000000000000000783019900000000000000000000Sin Identificar               000000005394700000000000000000000000000000000000000000000000000000000000000000000000000000000000000000000000000000000000PES00010000001000000000000000000000000
202401060810001200000000000000056466000000000000000564668000000000030716855860MEDITERRANEA COMEX SAS        000000000338300000000000000000000000000000000000000000000000000000000000000000000000000000000000000000000000000000000000PES00010000001000000000000000000000000
202401060810001200000000000000056471000000000000000564718000000000030703352150COMPANIA HIDRICA              000000000394998000000000000000000000000000000000000000000000000000000000000000000000000000000000000000000000000000000000PES00010000001000000000000000000000000
202401060810001200000000000000056480000000000000000564808000000000033715754989GRUPO ITS SRL                 000000000150000000000000000000000000000000000000000000000000000000000000000000000000000000000000000000000000000000000000PES00010000001000000000000000000000000
202401060830001200000000000000100861000000000000001009279900000000000000000000Sin Identificar               000000005121201000000000000000000000000000000000000000000000000000000000000000000000000000000000000000000000000000000000PES00010000001000000000000000000000000
202401060810001300000000000000066208000000000000000662088000000000020401066714GOMEZ SILVA SEBASTIAN         000000000354998000000000000000000000000000000000000000000000000000000000000000000000000000000000000000000000000000000000PES00010000001000000000000000000000000
202401060810001300000000000000066210000000000000000662108000000000033715754989GRUPO ITS SRL                 000000000150000000000000000000000000000000000000000000000000000000000000000000000000000000000000000000000000000000000000PES00010000001000000000000000000000000
202401060810001300000000000000066211000000000000000662118000000000033715754989GRUPO ITS SRL                 000000000150000000000000000000000000000000000000000000000000000000000000000000000000000000000000000000000000000000000000PES00010000001000000000000000000000000
202401060810001300000000000000066215000000000000000662158000000000030710103220TERRALON SRL                  000000000976201000000000000000000000000000000000000000000000000000000000000000000000000000000000000000000000000000000000PES00010000001000000000000000000000000
202401060810001300000000000000066217000000000000000662178000000000030716024071EL JARDINERO SAS              000000000370799000000000000000000000000000000000000000000000000000000000000000000000000000000000000000000000000000000000PES00010000001000000000000000000000000
202401060810001300000000000000066218000000000000000662188000000000033632963659QUIPAR S.R.L.                 000000000531999000000000000000000000000000000000000000000000000000000000000000000000000000000000000000000000000000000000PES00010000001000000000000000000000000
202401060810001300000000000000066228000000000000000662288000000000020342462635FATALA ALEXIS                 000000000380000000000000000000000000000000000000000000000000000000000000000000000000000000000000000000000000000000000000PES00010000001000000000000000000000000
202401060810001300000000000000066229000000000000000662298000000000030715501887ISA SRL                       000000000531999000000000000000000000000000000000000000000000000000000000000000000000000000000000000000000000000000000000PES00010000001000000000000000000000000
202401060810001300000000000000066232000000000000000662328000000000030718121287SIMFRACO SAS                  000000000596701000000000000000000000000000000000000000000000000000000000000000000000000000000000000000000000000000000000PES00010000001000000000000000000000000
202401060810001300000000000000066234000000000000000662348000000000030531398870CASA RAYO SRL                 000000002138800000000000000000000000000000000000000000000000000000000000000000000000000000000000000000000000000000000000PES00010000001000000000000000000000000
202401060810001300000000000000066236000000000000000662368000000000020126126469TOBAL CABRERA JOSE LUIS       000000000120000000000000000000000000000000000000000000000000000000000000000000000000000000000000000000000000000000000000PES00010000001000000000000000000000000
202401060810001300000000000000066237000000000000000662378000000000020288164267DEHEZA ROBERTO EZEQUIEL       000000000554299000000000000000000000000000000000000000000000000000000000000000000000000000000000000000000000000000000000PES00010000001000000000000000000000000
202401060810001300000000000000066238000000000000000662388000000000030714997110TARPUY AGRO SRL               000000000755000000000000000000000000000000000000000000000000000000000000000000000000000000000000000000000000000000000000PES00010000001000000000000000000000000
202401060810001300000000000000066248000000000000000662488000000000033715754989GRUPO ITS SRL                 000000000150000000000000000000000000000000000000000000000000000000000000000000000000000000000000000000000000000000000000PES00010000001000000000000000000000000
202401060820001300000000000000003204000000000000000032048000000000020250384352QUIÑONES PABLO                000000000437300000000000000000000000000000000000000000000000000000000000000000000000000000000000000000000000000000000000PES00010000001000000000000000000000000
202401060830001300000000000000137460000000000000001375779900000000000000000000Sin Identificar               000000018257410000000000000000000000000000000000000000000000000000000000000000000000000000000000000000000000000000000000PES00010000001000000000000000000000000
202401060810001400000000000000000669000000000000000006698000000000030708772395RECUPERAR SRL                 000000000220000000000000000000000000000000000000000000000000000000000000000000000000000000000000000000000000000000000000PES00010000001000000000000000000000000
202401060830001400000000000000087868000000000000000881729900000000000000000000Sin Identificar               000000101245853000000013859090000000000000000000000000000000000000000000000000000000000000000000000000000000000000000000PES00010000001000000000000000000000000
202401060810001500000000000000000287000000000000000002878000000000020227735334PAEZ GONZALO JOSE             000000000920000000000000000000000000000000000000000000000000000000000000000000000000000000000000000000000000000000000000PES00010000001000000000000000000000000
202401060830001500000000000000013073000000000000000130959900000000000000000000Sin Identificar               000000018835000000000000000000000000000000000000000000000000000000000000000000000000000000000000000000000000000000000000PES00010000001000000000000000000000000
202401070080000900000000000000000001000000000000000000018000000000020222222223CONSUMIDOR FINAL              000000000920000000000000000000000000000000000000000000000000000000000000000000000000000000000000000000000000000000000000PES00010000001000000000000000000000000
202401070830000900000000000000000001000000000000002946719900000000000000000000Sin Identificar               000000002822500000000000357608000000000000000000000000000000000000000000000000000000000000000000000000000000000000000000PES00010000001000000000000000000000000
202401070810001100000000000000047297000000000000000472978000000000030710624247TAPALEMPU                     000000000120000000000000000000000000000000000000000000000000000000000000000000000000000000000000000000000000000000000000PES00010000001000000000000000000000000
202401070810001100000000000000047299000000000000000472998000000000020179363861AIMARETTO GUSTAVO             000000000383698000000000000000000000000000000000000000000000000000000000000000000000000000000000000000000000000000000000PES00010000001000000000000000000000000
202401070830001100000000000000078319000000000000000783579900000000000000000000Sin Identificar               000000001680000000000000000000000000000000000000000000000000000000000000000000000000000000000000000000000000000000000000PES00010000001000000000000000000000000
202401070810001200000000000000056515000000000000000565158000000000030638051431DIAC S.R.L.                   000000000100000000000000000000000000000000000000000000000000000000000000000000000000000000000000000000000000000000000000PES00010000001000000000000000000000000
202401070830001200000000000000100966000000000000001009809900000000000000000000Sin Identificar               000000002331196000000000000000000000000000000000000000000000000000000000000000000000000000000000000000000000000000000000PES00010000001000000000000000000000000
202401070810001300000000000000066252000000000000000662528000000000033715754989GRUPO ITS SRL                 000000000100001000000000000000000000000000000000000000000000000000000000000000000000000000000000000000000000000000000000PES00010000001000000000000000000000000
202401070810001300000000000000066253000000000000000662538000000000030717523373INNOVA SOLUCIONES SAS         000000000521202000000000000000000000000000000000000000000000000000000000000000000000000000000000000000000000000000000000PES00010000001000000000000000000000000
202401070810001300000000000000066254000000000000000662548000000000033715754989GRUPO ITS SRL                 000000000150000000000000000000000000000000000000000000000000000000000000000000000000000000000000000000000000000000000000PES00010000001000000000000000000000000
202401070810001300000000000000066255000000000000000662558000000000033715754989GRUPO ITS SRL                 000000000150000000000000000000000000000000000000000000000000000000000000000000000000000000000000000000000000000000000000PES00010000001000000000000000000000000
202401070810001300000000000000066259000000000000000662598000000000020310415503ESPINOSA HUGO NICOLAS         000000000550002000000000000000000000000000000000000000000000000000000000000000000000000000000000000000000000000000000000PES00010000001000000000000000000000000
202401070810001300000000000000066265000000000000000662658000000000030715882597GROPIUS SAS                   000000000591801000000000000000000000000000000000000000000000000000000000000000000000000000000000000000000000000000000000PES00010000001000000000000000000000000
202401070810001300000000000000066268000000000000000662688000000000023306573039CAPRARI LUCIANO D             000000000552998000000000000000000000000000000000000000000000000000000000000000000000000000000000000000000000000000000000PES00010000001000000000000000000000000
202401070810001300000000000000066277000000000000000662778000000000030657559349S.O.S.  S.A.                  000000000554702000000000000000000000000000000000000000000000000000000000000000000000000000000000000000000000000000000000PES00010000001000000000000000000000000
202401070810001300000000000000066280000000000000000662808000000000033715754989GRUPO ITS SRL                 000000000150000000000000000000000000000000000000000000000000000000000000000000000000000000000000000000000000000000000000PES00010000001000000000000000000000000
202401070810001300000000000000066283000000000000000662838000000000020342462635FATALA ALEXIS                 000000000371501000000000000000000000000000000000000000000000000000000000000000000000000000000000000000000000000000000000PES00010000001000000000000000000000000
202401070830001300000000000000137586000000000000001376939900000000000000000000Sin Identificar               000000018629706000000000000000000000000000000000000000000000000000000000000000000000000000000000000000000000000000000000PES00010000001000000000000000000000000
202401070810001400000000000000000670000000000000000006708000000000027106827066COSMES ALI                    000000000512500000000000002239000000000000000000000000000000000000000000000000000000000000000000000000000000000000000000PES00010000001000000000000000000000000
202401070810001400000000000000000671000000000000000006718000000000020227735334PAEZ GONZALO JOSE             000000000365000000000000000000000000000000000000000000000000000000000000000000000000000000000000000000000000000000000000PES00010000001000000000000000000000000
202401070830001400000000000000088173000000000000000884149900000000000000000000Sin Identificar               000000076991046000000007813518000000000000000000000000000000000000000000000000000000000000000000000000000000000000000000PES00010000001000000000000000000000000
202401070810001500000000000000000288000000000000000002888000000000023178450379PAULO A. GRECCO               000000000460000000000000000000000000000000000000000000000000000000000000000000000000000000000000000000000000000000000000PES00010000001000000000000000000000000
202401070830001500000000000000013096000000000000000131219900000000000000000000Sin Identificar               000000018812000000000000000000000000000000000000000000000000000000000000000000000000000000000000000000000000000000000000PES00010000001000000000000000000000000
202401080810000800000000000000037214000000000000000372148000000000023421097089ARIEL GUREVICH                000000001680000000000000000000000000000000000000000000000000000000000000000000000000000000000000000000000000000000000000PES00010000001000000000000000000000000
202401080810000800000000000000037221000000000000000372218000000000030668975581UCONS SRL                     000000020966800000000000000000000000000000000000000000000000000000000000000000000000000000000000000000000000000000000000PES00010000001000000000000000000000000
202401080810000800000000000000037226000000000000000372268000000000020219029560SAGUIR JORGE                  000000014228400000000000000000000000000000000000000000000000000000000000000000000000000000000000000000000000000000000000PES00010000001000000000000000000000000
202401080810000800000000000000037229000000000000000372298000000000020117729150CENTURION DIEGO ALEJANDRO     000000000817300000000000000000000000000000000000000000000000000000000000000000000000000000000000000000000000000000000000PES00010000001000000000000000000000000
202401080820000800000000000000005259000000000000000052598000000000030546690519CONTADURIA GENERAL DEL EJ     000000001157400000000000000000000000000000000000000000000000000000000000000000000000000000000000000000000000000000000000PES00010000001000000000000000000000000
202401080830000800000000000000062947000000000000000629719900000000000000000000Sin Identificar               000000060466100000000000000000000000000000000000000000000000000000000000000000000000000000000000000000000000000000000000PES00010000001000000000000000000000000
202401080810000900000000000000001208000000000000000012088000000000030611137695JENA SA                       000000000250000000000000000000000000000000000000000000000000000000000000000000000000000000000000000000000000000000000000PES00010000001000000000000000000000000
202401080810000900000000000000001209000000000000000012098000000000020244723137CEBALLOS MARCOS RUBEN         000000000775000000000000000000000000000000000000000000000000000000000000000000000000000000000000000000000000000000000000PES00010000001000000000000000000000000
202401080830000900000000000000294672000000000000002947049900000000000000000000Sin Identificar               000000009096000000000000439890000000000000000000000000000000000000000000000000000000000000000000000000000000000000000000PES00010000001000000000000000000000000
202401080810001100000000000000047317000000000000000473178000000000030712036199HORMIGONES TERRA              000000001550600000000000000000000000000000000000000000000000000000000000000000000000000000000000000000000000000000000000PES00010000001000000000000000000000000
202401080830001100000000000000078371000000000000000784419900000000000000000000Sin Identificar               000000002859400000000000000000000000000000000000000000000000000000000000000000000000000000000000000000000000000000000000PES00010000001000000000000000000000000
202401080830001200000000000000101010000000000000001010839900000000000000000000Sin Identificar               000000003366702000000000000000000000000000000000000000000000000000000000000000000000000000000000000000000000000000000000PES00010000001000000000000000000000000
202401080810001300000000000000066291000000000000000662918000000000020331012328FERNANDO DANIEL GONZALEZ      000000000438601000000000000000000000000000000000000000000000000000000000000000000000000000000000000000000000000000000000PES00010000001000000000000000000000000
202401080810001300000000000000066292000000000000000662928000000000033715754989GRUPO ITS SRL                 000000000150000000000000000000000000000000000000000000000000000000000000000000000000000000000000000000000000000000000000PES00010000001000000000000000000000000
202401080810001300000000000000066294000000000000000662948000000000033715754989GRUPO ITS SRL                 000000000150000000000000000000000000000000000000000000000000000000000000000000000000000000000000000000000000000000000000PES00010000001000000000000000000000000
202401080810001300000000000000066295000000000000000662958000000000020244728090LEONARDO RAFAEL LUDUEÑA       000000000672000000000000000000000000000000000000000000000000000000000000000000000000000000000000000000000000000000000000PES00010000001000000000000000000000000
202401080810001300000000000000066298000000000000000662988000000000033715754989GRUPO ITS SRL                 000000000150000000000000000000000000000000000000000000000000000000000000000000000000000000000000000000000000000000000000PES00010000001000000000000000000000000
202401080810001300000000000000066299000000000000000662998000000000030611137695JENA SA                       000000000570602000000000000000000000000000000000000000000000000000000000000000000000000000000000000000000000000000000000PES00010000001000000000000000000000000
202401080810001300000000000000066307000000000000000663078000000000030714354147ORODAZ S.A                    000000001072999000000000000000000000000000000000000000000000000000000000000000000000000000000000000000000000000000000000PES00010000001000000000000000000000000
202401080810001300000000000000066313000000000000000663138000000000020227734982ALEJANDRO CARLOS VALE         000000000208402000000000000000000000000000000000000000000000000000000000000000000000000000000000000000000000000000000000PES00010000001000000000000000000000000
202401080810001300000000000000066317000000000000000663178000000000030714263982MASTER IT SRL                 000000000370998000000000000000000000000000000000000000000000000000000000000000000000000000000000000000000000000000000000PES00010000001000000000000000000000000
202401080810001300000000000000066323000000000000000663238000000000030716118394LUMINE S.A                    000000000510999000000000000000000000000000000000000000000000000000000000000000000000000000000000000000000000000000000000PES00010000001000000000000000000000000
202401080810001300000000000000066328000000000000000663288000000000020165010338BLANCO RAUL HORACIO           000000000437400000000000000000000000000000000000000000000000000000000000000000000000000000000000000000000000000000000000PES00010000001000000000000000000000000
202401080810001300000000000000066331000000000000000663318000000000030709785725EL LEGADO SEGURIDAD PRIVA     000000000383000000000000000000000000000000000000000000000000000000000000000000000000000000000000000000000000000000000000PES00010000001000000000000000000000000
202401080810001300000000000000066333000000000000000663338000000000033715754989GRUPO ITS SRL                 000000000100001000000000000000000000000000000000000000000000000000000000000000000000000000000000000000000000000000000000PES00010000001000000000000000000000000
202401080810001300000000000000066335000000000000000663358000000000020113785277RUBEN DARIO ORSO              000000000616000000000000000000000000000000000000000000000000000000000000000000000000000000000000000000000000000000000000PES00010000001000000000000000000000000
202401080810001300000000000000066347000000000000000663478000000000020324868349ELIAS MARTIN BEDRAN           000000000942701000000000000000000000000000000000000000000000000000000000000000000000000000000000000000000000000000000000PES00010000001000000000000000000000000
202401080810001300000000000000066355000000000000000663558000000000033715754989GRUPO ITS SRL                 000000000150000000000000000000000000000000000000000000000000000000000000000000000000000000000000000000000000000000000000PES00010000001000000000000000000000000
202401080810001300000000000000066356000000000000000663568000000000033715754989GRUPO ITS SRL                 000000000150000000000000000000000000000000000000000000000000000000000000000000000000000000000000000000000000000000000000PES00010000001000000000000000000000000
202401080810001300000000000000066359000000000000000663598000000000030715344943TRIANGULAR SA                 000000000635699000000000000000000000000000000000000000000000000000000000000000000000000000000000000000000000000000000000PES00010000001000000000000000000000000
202401080810001300000000000000066361000000000000000663618000000000030708244755AGROPECUARIA SAN ANTONIO      000000000579998000000000000000000000000000000000000000000000000000000000000000000000000000000000000000000000000000000000PES00010000001000000000000000000000000
202401080810001300000000000000066363000000000000000663638000000000030716253313CORDOBA LIMPIA SAS            000000001087000000000000000000000000000000000000000000000000000000000000000000000000000000000000000000000000000000000000PES00010000001000000000000000000000000
202401080810001300000000000000066367000000000000000663678000000000020342462635FATALA ALEXIS                 000000000483001000000000000000000000000000000000000000000000000000000000000000000000000000000000000000000000000000000000PES00010000001000000000000000000000000
202401080820001300000000000000003207000000000000000032078000000000020250384352QUIÑONES PABLO                000000000150000000000000000000000000000000000000000000000000000000000000000000000000000000000000000000000000000000000000PES00010000001000000000000000000000000
202401080830001300000000000000137695000000000000001378549900000000000000000000Sin Identificar               000000027618791000000000000000000000000000000000000000000000000000000000000000000000000000000000000000000000000000000000PES00010000001000000000000000000000000
202401080810001400000000000000000672000000000000000006728000000000030709785725EL LEGADO SEGURIDAD PRIVA     000000000250000000000000000000000000000000000000000000000000000000000000000000000000000000000000000000000000000000000000PES00010000001000000000000000000000000
202401080810001400000000000000000673000000000000000006738000000000020227735334PAEZ GONZALO JOSE             000000000834000000000000000000000000000000000000000000000000000000000000000000000000000000000000000000000000000000000000PES00010000001000000000000000000000000
202401080810001400000000000000000674000000000000000006748000000000030504484455ESTRUCTURAS SACICIYF          000000000485000000000000002239000000000000000000000000000000000000000000000000000000000000000000000000000000000000000000PES00010000001000000000000000000000000
202401080810001400000000000000000675000000000000000006758000000000030708244755AGROPECUARIA SAN ANTONIO      000000000220000000000000000000000000000000000000000000000000000000000000000000000000000000000000000000000000000000000000PES00010000001000000000000000000000000
202401080830001400000000000000088415000000000000000887179900000000000000000000Sin Identificar               000000081542000000000011023780000000000000000000000000000000000000000000000000000000000000000000000000000000000000000000PES00010000001000000000000000000000000
202401080810001500000000000000000289000000000000000002898000000000030709063002FLEXXUS S.A.                  000000000190000000000000000000000000000000000000000000000000000000000000000000000000000000000000000000000000000000000000PES00010000001000000000000000000000000
202401080810001500000000000000000290000000000000000002908000000000030716863847ASESORES DEL INTERIOR SOC     000000000800000000000000000000000000000000000000000000000000000000000000000000000000000000000000000000000000000000000000PES00010000001000000000000000000000000
202401080830001500000000000000013122000000000000000131649900000000000000000000Sin Identificar               000000025088000000000000002239000000000000000000000000000000000000000000000000000000000000000000000000000000000000000000PES00010000001000000000000000000000000
202401090830000800000000000000062977000000000000000630109900000000000000000000Sin Identificar               000000045310701000000000000000000000000000000000000000000000000000000000000000000000000000000000000000000000000000000000PES00010000001000000000000000000000000
202401090080000900000000000000000001000000000000000000018000000000020222222223CONSUMIDOR FINAL              000000000460000000000000000000000000000000000000000000000000000000000000000000000000000000000000000000000000000000000000PES00010000001000000000000000000000000
202401090830000900000000000000000002000000000000002947299900000000000000000000Sin Identificar               000000009955500000000000442379000000000000000000000000000000000000000000000000000000000000000000000000000000000000000000PES00010000001000000000000000000000000
202401090810001100000000000000047398000000000000000473988000000000020246147885ALONSO ALEJANDRO GABRIEL      000000000204700000000000000000000000000000000000000000000000000000000000000000000000000000000000000000000000000000000000PES00010000001000000000000000000000000
202401090830001100000000000000078447000000000000000785399900000000000000000000Sin Identificar               000000002464100000000000000000000000000000000000000000000000000000000000000000000000000000000000000000000000000000000000PES00010000001000000000000000000000000
202401090810001200000000000000056626000000000000000566268000000000030715944606INFODOCTA S.A.                000000000204998000000000000000000000000000000000000000000000000000000000000000000000000000000000000000000000000000000000PES00010000001000000000000000000000000
202401090830001200000000000000101094000000000000001011989900000000000000000000Sin Identificar               000000001968897000000000000000000000000000000000000000000000000000000000000000000000000000000000000000000000000000000000PES00010000001000000000000000000000000
202401090810001300000000000000066370000000000000000663708000000000020254550656SCANFERLA RAUL                000000000739499000000000000000000000000000000000000000000000000000000000000000000000000000000000000000000000000000000000PES00010000001000000000000000000000000
202401090810001300000000000000066371000000000000000663718000000000033715754989GRUPO ITS SRL                 000000000150000000000000000000000000000000000000000000000000000000000000000000000000000000000000000000000000000000000000PES00010000001000000000000000000000000
202401090810001300000000000000066372000000000000000663728000000000030658446300ALBER-GUS S.A                 000000000306201000000000000000000000000000000000000000000000000000000000000000000000000000000000000000000000000000000000PES00010000001000000000000000000000000
202401090810001300000000000000066373000000000000000663738000000000033715754989GRUPO ITS SRL                 000000000150000000000000000000000000000000000000000000000000000000000000000000000000000000000000000000000000000000000000PES00010000001000000000000000000000000
202401090810001300000000000000066374000000000000000663748000000000033707354149CONSTUCCIONES DEL LAGO        000000000771702000000000000000000000000000000000000000000000000000000000000000000000000000000000000000000000000000000000PES00010000001000000000000000000000000
202401090810001300000000000000066376000000000000000663768000000000030715831097DOPPIAF                       000000000676002000000000000000000000000000000000000000000000000000000000000000000000000000000000000000000000000000000000PES00010000001000000000000000000000000
202401090810001300000000000000066377000000000000000663778000000000030710103220TERRALON SRL                  000000000275502000000000000000000000000000000000000000000000000000000000000000000000000000000000000000000000000000000000PES00010000001000000000000000000000000
202401090810001300000000000000066378000000000000000663788000000000030710687834GLOCOM S.A.                   000000000326701000000000000000000000000000000000000000000000000000000000000000000000000000000000000000000000000000000000PES00010000001000000000000000000000000
202401090810001300000000000000066380000000000000000663808000000000030717927261NUEVE DIECISEIS SAS           000000000288401000000000000000000000000000000000000000000000000000000000000000000000000000000000000000000000000000000000PES00010000001000000000000000000000000
202401090810001300000000000000066383000000000000000663838000000000030669110851SALVAC S R L                  000000000448999000000000000000000000000000000000000000000000000000000000000000000000000000000000000000000000000000000000PES00010000001000000000000000000000000
202401090810001300000000000000066391000000000000000663918000000000030714082910MAX CONTINENTAL SA            000000000405799000000000000000000000000000000000000000000000000000000000000000000000000000000000000000000000000000000000PES00010000001000000000000000000000000
202401090810001300000000000000066394000000000000000663948000000000030710787863SOLVENS TRADE                 000000000310801000000000000000000000000000000000000000000000000000000000000000000000000000000000000000000000000000000000PES00010000001000000000000000000000000
202401090810001300000000000000066396000000000000000663968000000000033715754989GRUPO ITS SRL                 000000000100001000000000000000000000000000000000000000000000000000000000000000000000000000000000000000000000000000000000PES00010000001000000000000000000000000
202401090810001300000000000000066400000000000000000664008000000000030709785725EL LEGADO SEGURIDAD PRIVA     000000000307701000000000000000000000000000000000000000000000000000000000000000000000000000000000000000000000000000000000PES00010000001000000000000000000000000
202401090810001300000000000000066402000000000000000664028000000000027253361412VILELA AGUIRRE GRICELDA       000000000510900000000000000000000000000000000000000000000000000000000000000000000000000000000000000000000000000000000000PES00010000001000000000000000000000000
202401090810001300000000000000066410000000000000000664108000000000033715754989GRUPO ITS SRL                 000000000150000000000000000000000000000000000000000000000000000000000000000000000000000000000000000000000000000000000000PES00010000001000000000000000000000000
202401090810001300000000000000066414000000000000000664148000000000030710866011VASSALLOS SRL                 000000000322999000000000000000000000000000000000000000000000000000000000000000000000000000000000000000000000000000000000PES00010000001000000000000000000000000
202401090810001300000000000000066415000000000000000664158000000000033715754989GRUPO ITS SRL                 000000000150000000000000000000000000000000000000000000000000000000000000000000000000000000000000000000000000000000000000PES00010000001000000000000000000000000
202401090810001300000000000000066416000000000000000664168000000000030714790788NAXOS KUT S.A.                000000000354699000000000000000000000000000000000000000000000000000000000000000000000000000000000000000000000000000000000PES00010000001000000000000000000000000
202401090830001300000000000000137862000000000000001380039900000000000000000000Sin Identificar               000000021867400000000000000000000000000000000000000000000000000000000000000000000000000000000000000000000000000000000000PES00010000001000000000000000000000000
202401090810001400000000000000000676000000000000000006768000000000030709785725EL LEGADO SEGURIDAD PRIVA     000000000250000000000000000000000000000000000000000000000000000000000000000000000000000000000000000000000000000000000000PES00010000001000000000000000000000000
202401090810001400000000000000000677000000000000000006778000000000020227735334PAEZ GONZALO JOSE             000000000540000000000000000000000000000000000000000000000000000000000000000000000000000000000000000000000000000000000000PES00010000001000000000000000000000000
202401090810001400000000000000000678000000000000000006788000000000020128124854BONANGELINO H.A.              000000002090000000000000012952000000000000000000000000000000000000000000000000000000000000000000000000000000000000000000PES00010000001000000000000000000000000
202401090830001400000000000000088718000000000000000889939900000000000000000000Sin Identificar               000000076531799000000007587200000000000000000000000000000000000000000000000000000000000000000000000000000000000000000000PES00010000001000000000000000000000000
202401090810001500000000000000000291000000000000000002918000000000023178450379PAULO A. GRECCO               000000000470000000000000000000000000000000000000000000000000000000000000000000000000000000000000000000000000000000000000PES00010000001000000000000000000000000
202401090810001500000000000000000292000000000000000002928000000000030709063002FLEXXUS S.A.                  000000000590000000000000000000000000000000000000000000000000000000000000000000000000000000000000000000000000000000000000PES00010000001000000000000000000000000
202401090810001500000000000000000293000000000000000002938000000000020111945986DANIEL STILLO                 000000000760000000000000000000000000000000000000000000000000000000000000000000000000000000000000000000000000000000000000PES00010000001000000000000000000000000
202401090830001500000000000000013165000000000000000132049900000000000000000000Sin Identificar               000000026259000000000000002986000000000000000000000000000000000000000000000000000000000000000000000000000000000000000000PES00010000001000000000000000000000000
202401100810000800000000000000037272000000000000000372728000000000030715364952CERVACORT SA                  000000018351700000000000000000000000000000000000000000000000000000000000000000000000000000000000000000000000000000000000PES00010000001000000000000000000000000
202401100810000800000000000000037276000000000000000372768000000000020205421298MARCOS QUINTANA               000000011790100000000000000000000000000000000000000000000000000000000000000000000000000000000000000000000000000000000000PES00010000001000000000000000000000000
202401100810000800000000000000037282000000000000000372828000000000020117729150CENTURION DIEGO ALEJANDRO     000000000160000000000000000000000000000000000000000000000000000000000000000000000000000000000000000000000000000000000000PES00010000001000000000000000000000000
202401100830000800000000000000063018000000000000000630549900000000000000000000Sin Identificar               000000036078300000000000000000000000000000000000000000000000000000000000000000000000000000000000000000000000000000000000PES00010000001000000000000000000000000
202401100080000900000000000000000001000000000000000000018000000000020222222223CONSUMIDOR FINAL              000000000890000000000000000000000000000000000000000000000000000000000000000000000000000000000000000000000000000000000000PES00010000001000000000000000000000000
202401100080000900000000000000000001000000000000000000018000000000020222222223CONSUMIDOR FINAL              000000000400000000000000000000000000000000000000000000000000000000000000000000000000000000000000000000000000000000000000PES00010000001000000000000000000000000
202401100830000900000000000000294730000000000000002947539900000000000000000000Sin Identificar               000000006683001000000001509414000000000000000000000000000000000000000000000000000000000000000000000000000000000000000000PES00010000001000000000000000000000000
202401100810001100000000000000047460000000000000000474608000000000020182585557DUJE MARCELO                  000000000199999000000000000000000000000000000000000000000000000000000000000000000000000000000000000000000000000000000000PES00010000001000000000000000000000000
202401100830001100000000000000078560000000000000000786359900000000000000000000Sin Identificar               000000004547400000000000000000000000000000000000000000000000000000000000000000000000000000000000000000000000000000000000PES00010000001000000000000000000000000
202401100830001200000000000000101220000000000000001012939900000000000000000000Sin Identificar               000000001607103000000000000000000000000000000000000000000000000000000000000000000000000000000000000000000000000000000000PES00010000001000000000000000000000000
202401100810001300000000000000066421000000000000000664218000000000033715754989GRUPO ITS SRL                 000000000150000000000000000000000000000000000000000000000000000000000000000000000000000000000000000000000000000000000000PES00010000001000000000000000000000000
202401100810001300000000000000066422000000000000000664228000000000020254550656SCANFERLA RAUL                000000000742898000000000000000000000000000000000000000000000000000000000000000000000000000000000000000000000000000000000PES00010000001000000000000000000000000
202401100810001300000000000000066423000000000000000664238000000000030710207034AHORA SA                      000000000514199000000000000000000000000000000000000000000000000000000000000000000000000000000000000000000000000000000000PES00010000001000000000000000000000000
202401100810001300000000000000066424000000000000000664248000000000033715754989GRUPO ITS SRL                 000000000150000000000000000000000000000000000000000000000000000000000000000000000000000000000000000000000000000000000000PES00010000001000000000000000000000000
202401100810001300000000000000066430000000000000000664308000000000030517059095MONROE AMERICANA              000000000380702000000000000000000000000000000000000000000000000000000000000000000000000000000000000000000000000000000000PES00010000001000000000000000000000000
202401100810001300000000000000066431000000000000000664318000000000033632963659QUIPAR S.R.L.                 000000000603001000000000000000000000000000000000000000000000000000000000000000000000000000000000000000000000000000000000PES00010000001000000000000000000000000
202401100810001300000000000000066432000000000000000664328000000000030714601497PAINT FINISH                  000000000417502000000000000000000000000000000000000000000000000000000000000000000000000000000000000000000000000000000000PES00010000001000000000000000000000000
202401100810001300000000000000066437000000000000000664378000000000030717141624STRADE SA                     000000000534401000000000000000000000000000000000000000000000000000000000000000000000000000000000000000000000000000000000PES00010000001000000000000000000000000
202401100810001300000000000000066438000000000000000664388000000000030657559349S.O.S.  S.A.                  000000000547899000000000000000000000000000000000000000000000000000000000000000000000000000000000000000000000000000000000PES00010000001000000000000000000000000
202401100810001300000000000000066444000000000000000664448000000000027324920817ISAIA CARLA ANDREA            000000000528001000000000000000000000000000000000000000000000000000000000000000000000000000000000000000000000000000000000PES00010000001000000000000000000000000
202401100810001300000000000000066448000000000000000664488000000000033715754989GRUPO ITS SRL                 000000000150000000000000000000000000000000000000000000000000000000000000000000000000000000000000000000000000000000000000PES00010000001000000000000000000000000
202401100810001300000000000000066451000000000000000664518000000000030710853432CLIMATICA S.R.L.              000000000199999000000000000000000000000000000000000000000000000000000000000000000000000000000000000000000000000000000000PES00010000001000000000000000000000000
202401100810001300000000000000066456000000000000000664568000000000030717835553STIPA SAS                     000000000303799000000000000000000000000000000000000000000000000000000000000000000000000000000000000000000000000000000000PES00010000001000000000000000000000000
202401100810001300000000000000066460000000000000000664608000000000030714263982MASTER IT SRL                 000000000348802000000000000000000000000000000000000000000000000000000000000000000000000000000000000000000000000000000000PES00010000001000000000000000000000000
202401100810001300000000000000066465000000000000000664658000000000027116456473MOYANO MARIA TERESA           000000000600000000000000000000000000000000000000000000000000000000000000000000000000000000000000000000000000000000000000PES00010000001000000000000000000000000
202401100810001300000000000000066468000000000000000664688000000000030714263982MASTER IT SRL                 000000000603998000000000000000000000000000000000000000000000000000000000000000000000000000000000000000000000000000000000PES00010000001000000000000000000000000
202401100810001300000000000000066476000000000000000664768000000000030712345426NON RISK S.A.                 000000000506499000000000000000000000000000000000000000000000000000000000000000000000000000000000000000000000000000000000PES00010000001000000000000000000000000
202401100810001300000000000000066482000000000000000664828000000000030536192626COPERATIVA LA FEDERACION      000000000987701000000000000000000000000000000000000000000000000000000000000000000000000000000000000000000000000000000000PES00010000001000000000000000000000000
202401100810001300000000000000066483000000000000000664838000000000033715754989GRUPO ITS SRL                 000000000150000000000000000000000000000000000000000000000000000000000000000000000000000000000000000000000000000000000000PES00010000001000000000000000000000000
202401100810001300000000000000066498000000000000000664988000000000020342462635FATALA ALEXIS                 000000000400001000000000000000000000000000000000000000000000000000000000000000000000000000000000000000000000000000000000PES00010000001000000000000000000000000
202401100810001300000000000000066501000000000000000665018000000000020256037840STICCA FABIAN                 000000000566301000000000000000000000000000000000000000000000000000000000000000000000000000000000000000000000000000000000PES00010000001000000000000000000000000
202401100810001300000000000000066502000000000000000665028000000000033715754989GRUPO ITS SRL                 000000000150000000000000000000000000000000000000000000000000000000000000000000000000000000000000000000000000000000000000PES00010000001000000000000000000000000
202401100820001300000000000000003210000000000000000032108000000000030546690519CONTADURIA GENERAL DEL EJ     000000004021300000000000000000000000000000000000000000000000000000000000000000000000000000000000000000000000000000000000PES00010000001000000000000000000000000
202401100830001300000000000000138008000000000000001381459900000000000000000000Sin Identificar               000000025369376000000000000000000000000000000000000000000000000000000000000000000000000000000000000000000000000000000000PES00010000001000000000000000000000000
202401100810001400000000000000000679000000000000000006798000000000030709785725EL LEGADO SEGURIDAD PRIVA     000000000250000000000000000000000000000000000000000000000000000000000000000000000000000000000000000000000000000000000000PES00010000001000000000000000000000000
202401100810001400000000000000000680000000000000000006808000000000020227735334PAEZ GONZALO JOSE             000000001010000000000000000000000000000000000000000000000000000000000000000000000000000000000000000000000000000000000000PES00010000001000000000000000000000000
202401100810001400000000000000000681000000000000000006818000000000020310741362GALI LUIS                     000000000795000000000000000000000000000000000000000000000000000000000000000000000000000000000000000000000000000000000000PES00010000001000000000000000000000000
202401100830001400000000000000088994000000000000000893029900000000000000000000Sin Identificar               000000090876126000000013955849000000000000000000000000000000000000000000000000000000000000000000000000000000000000000000PES00010000001000000000000000000000000
202401100810001500000000000000000294000000000000000002948000000000030714790788NAXOS KUT S.A.                000000001900000000000000000000000000000000000000000000000000000000000000000000000000000000000000000000000000000000000000PES00010000001000000000000000000000000
202401100810001500000000000000000295000000000000000002958000000000030714790788NAXOS KUT S.A.                000000001890000000000000000000000000000000000000000000000000000000000000000000000000000000000000000000000000000000000000PES00010000001000000000000000000000000
202401100810001500000000000000000296000000000000000002968000000000030714790788NAXOS KUT S.A.                000000000228000000000000004478000000000000000000000000000000000000000000000000000000000000000000000000000000000000000000PES00010000001000000000000000000000000
202401100830001500000000000000013205000000000000000132569900000000000000000000Sin Identificar               000000031545000000000000008956000000000000000000000000000000000000000000000000000000000000000000000000000000000000000000PES00010000001000000000000000000000000
202401110810000800000000000000037294000000000000000372948000000000033707354149CONSTUCCIONES DEL LAGO        000000000640000000000000000000000000000000000000000000000000000000000000000000000000000000000000000000000000000000000000PES00010000001000000000000000000000000
202401110810000800000000000000037311000000000000000373118000000000023228652709QUINTERO HUGO                 000000010199100000000000000000000000000000000000000000000000000000000000000000000000000000000000000000000000000000000000PES00010000001000000000000000000000000
202401110810000800000000000000037315000000000000000373158000000000030709282049TECNOGRAN SRL                 000000007276600000000000000000000000000000000000000000000000000000000000000000000000000000000000000000000000000000000000PES00010000001000000000000000000000000
202401110810000800000000000000037320000000000000000373208000000000020282720265SOLARI GASTON ARIEL           000000010438700000000000000000000000000000000000000000000000000000000000000000000000000000000000000000000000000000000000PES00010000001000000000000000000000000
202401110830000800000000000000063059000000000000000631009900000000000000000000Sin Identificar               000000056221300000000000000000000000000000000000000000000000000000000000000000000000000000000000000000000000000000000000PES00010000002000000000000000000000000
202401110830000900000000000000294754000000000000002947769900000000000000000000Sin Identificar               000000007149500000000000674294000000000000000000000000000000000000000000000000000000000000000000000000000000000000000000PES00010000001000000000000000000000000
202401110060001000000000000000000330000000000000000003308000000000020222222223CONSUMIDOR FINAL              000000490706850000000000000000000000000000000000000000000000000000000000000000000000000000000000000000000000000000000000PES00010000001000000000000000000000000
202401110810001100000000000000047508000000000000000475088000000000030712036199HORMIGONES TERRA              000000001550600000000000000000000000000000000000000000000000000000000000000000000000000000000000000000000000000000000000PES00010000001000000000000000000000000
202401110830001100000000000000078663000000000000000787139900000000000000000000Sin Identificar               000000007707800000000000000000000000000000000000000000000000000000000000000000000000000000000000000000000000000000000000PES00010000002000000000000000000000000
202401110810001200000000000000056738000000000000000567388000000000030716756889CAPRICHOSA SAS                000000000522000000000000000000000000000000000000000000000000000000000000000000000000000000000000000000000000000000000000PES00010000001000000000000000000000000
202401110810001200000000000000056741000000000000000567418000000000030716471914BASSIAR CONSTRUCCIONES S.     000000000351599000000000000000000000000000000000000000000000000000000000000000000000000000000000000000000000000000000000PES00010000001000000000000000000000000
202401110810001200000000000000056758000000000000000567588000000000030715886924ARGENSEGUR SRL                000000000220001000000000000000000000000000000000000000000000000000000000000000000000000000000000000000000000000000000000PES00010000001000000000000000000000000
202401110810001200000000000000056786000000000000000567868000000000020170037821MONTENEGRO GUILLERMO ANIB     000000000060000000000000000000000000000000000000000000000000000000000000000000000000000000000000000000000000000000000000PES00010000001000000000000000000000000
202401110830001200000000000000101336000000000000001013439900000000000000000000Sin Identificar               000000000240000000000000000000000000000000000000000000000000000000000000000000000000000000000000000000000000000000000000PES00010000001000000000000000000000000
202401110810001300000000000000066504000000000000000665048000000000020254550656SCANFERLA RAUL                000000000814598000000000000000000000000000000000000000000000000000000000000000000000000000000000000000000000000000000000PES00010000001000000000000000000000000
202401110810001300000000000000066506000000000000000665068000000000030658446300ALBER-GUS S.A                 000000000367698000000000000000000000000000000000000000000000000000000000000000000000000000000000000000000000000000000000PES00010000001000000000000000000000000
202401110810001300000000000000066508000000000000000665088000000000020113785277RUBEN DARIO ORSO              000000000665301000000000000000000000000000000000000000000000000000000000000000000000000000000000000000000000000000000000PES00010000001000000000000000000000000
202401110810001300000000000000066510000000000000000665108000000000030710103220TERRALON SRL                  000000001208898000000000000000000000000000000000000000000000000000000000000000000000000000000000000000000000000000000000PES00010000001000000000000000000000000
202401110810001300000000000000066511000000000000000665118000000000033715754989GRUPO ITS SRL                 000000000150000000000000000000000000000000000000000000000000000000000000000000000000000000000000000000000000000000000000PES00010000001000000000000000000000000
202401110810001300000000000000066514000000000000000665148000000000020162923766KATZ CARLOS GABRIEL           000000000540198000000000000000000000000000000000000000000000000000000000000000000000000000000000000000000000000000000000PES00010000001000000000000000000000000
202401110810001300000000000000066515000000000000000665158000000000030714997110TARPUY AGRO SRL               000000000455399000000000000000000000000000000000000000000000000000000000000000000000000000000000000000000000000000000000PES00010000001000000000000000000000000
202401110810001300000000000000066519000000000000000665198000000000030669110851SALVAC S R L                  000000000325600000000000000000000000000000000000000000000000000000000000000000000000000000000000000000000000000000000000PES00010000001000000000000000000000000
202401110810001300000000000000066529000000000000000665298000000000030629233144INTEC S R L                   000000000502002000000000000000000000000000000000000000000000000000000000000000000000000000000000000000000000000000000000PES00010000001000000000000000000000000
202401110810001300000000000000066531000000000000000665318000000000030707961542ESTABLECIMIENTOS ARGENTIN     000000000322101000000000000000000000000000000000000000000000000000000000000000000000000000000000000000000000000000000000PES00010000001000000000000000000000000
